:200000000C948C000C94B4000C94B4000C94B4000C94B4000C94B4000C94B4000C94B40068
:200020000C94B4000C94B4000C94B4000C94B4000C94B4000C94B4000C94B4000C94B40020
:200040000C94C0090C94B4000C94320B0C94640B0C94B4000C94B4000C94B4000C94B400A7
:200060000C946A050C94B40008000000BE922449123EABAAAA2ABECDCCCC4C3E00000080B2
:20008000BEABAAAAAA3E00000000BF000000803F0000000000084178D3BB4387D1133D19EA
:2000A0000E3CC3BD4282AD2B3E68EC8276BED98FE1A93E4C80EFFFBE01C4FF7F3F00000068
:2000C000000000000008000201000003040700000000000000000102040810204080010205
:2000E000040810200102040810200404040404040404020202020202030303030303000047
:200100000000250028002B0000000000240027002A0004028804940B11241FBECFEFD8E039
:20012000DEBFCDBF11E0A0E0B1E0E8E0F9E202C005900D92A839B107D9F723E0A8E9B1E06D
:2001400001C01D92A332B207E1F711E0C8E1D1E004C02297FE010E949E11C231D107C9F726
:200160000E94D80B0C9482140C940000CF92EF920F9382E0C82E93E0E92E04E025E04BE0AA
:200180006CE085EA91E00E948B0384EA91E00F91EF90CF900C949E068F929F92AF92BF927E
:2001A000CF92DF92EF92FF9240E060E085EA91E00E94B60284EA91E00E945B074B015C0135
:2001C00084EA91E00E9476076B017C0161E671E085EA91E00E94250C21E030E0B501A40181
:2001E00085EA91E00E94E20D66E071E085EA91E00E94250C21E030E0B701A60185EA91E0F4
:200200000E94E20D6CE071E085EA91E00E94250C68E873E180E090E00E942D0A41E060E04F
:2002200085EA91E00E94B60288E991E00E9485088823D1F188E991E00E9409084B015C01C8
:2002400088E991E00E94D20881112DC060919F017091A00180E090E00E94CA0F6B017C015A
:2002600061E671E085EA91E00E94250C21E030E0B501A40185EA91E00E94E20D6EE071E0B7
:2002800085EA91E00E94250C20E030E0B701A60185EA91E00E94E20D65E171E085EA91E054
:2002A0000E94250C01C0FFCF6CE775E180E090E0FF90EF90DF90CF90BF90AF909F908F90AB
:2002C0000C942D0A0F931F93CF93DF93CDB7DEB762970FB6F894DEBF0FBECDBF69E171E02B
:2002E00086E892E00E94250C84EA91E00E9422072D873E874F87588B698B7F9389898F9335
:2003000088898F938F858F938E858F938D858F938FE291E09F938F938E010F5F1F4F1F93B8
:200320000F930E94B111B80186E892E00E94420C0FB6F894DEBF0FBECDBF62960FB6F8949E
:20034000DEBF0FBECDBFDF91CF911F910F91089520E042E060E185EA91E00E94D00240E013
:2003600060E085EA91E00E94B6026EE371E085EA91E00E94250C64E471E085EA91E00E9493
:20038000250C60E484EA91E00E94D90660E971E080E090E00E942D0A0E94620141E060E0DF
:2003A00085EA91E00E94B60263E571E085EA91E00E94250C68EC70E080E090E00E942D0A6A
:2003C0006AE588E991E00E948709811101C0FFCF88E991E00E9485088823D1F388E991E037
:2003E0000E94090820E030E048EC51E40E94C80E6093990170939A0180939B0190939C01BF
:2004000085EA91E00C94AF020C94B600CF93DF93EC0160E08E810E94FC0A81E090E00E942A
:20042000550A61E08E810E94FC0A81E090E00E94550A60E08E810E94FC0A84E690E0DF9152
:20044000CF910C94550ACF92DF92EF92FF920F931F93CF93DF937C01C0E0D0E0C62ED12C73
:2004600087010C0F1D1F61E0F80187810E94C30AB6010C2E02C0759567950A94E2F76170EB
:20048000F80187810E94FC0A2196C430D10541F7C701DF91CF911F910F91FF90EF90DF9095
:2004A000CF900C940602CF92DF92EF92FF920F931F93CF93DF937C01C0E0D0E0C62ED12C6B
:2004C00087010C0F1D1F61E0F80187810E94C30AB6010C2E02C0759567950A94E2F761708B
:2004E000F80187810E94FC0A2196C830D10541F7C701DF91CF911F910F91FF90EF90DF9031
:20050000CF900C9406021F93CF93DF93EC01162F642F8C810E94FC0A8D818F3F19F060E0AF
:200520000E94FC0A8F85612F84FF06C0CE01DF91CF911F910C94530270E084E07595679528
:200540008A95E1F7CE010E942302612FCE01DF91CF911F910C94230240E00C94830261E0E4
:200560000E94AC0280ED97E00C94550A443008F043E0FC012389421710F04FEF420FFC012B
:20058000E40FF11D2489260F2068622F0C94AC02FC016089262F2460208B6C600C94AC028D
:2005A000CF93DF93EC01423018F08F8588608F874B8B1C8A80E48D8B6E8B70E0605C7F4F23
:2005C0006F8B222329F0413019F48F8584608F8780E593EC0E94550A60E08C810E94FC0A5D
:2005E00060E08E810E94FC0A8D818F3F19F060E00E94FC0A6F8564FD1DC063E0CE010E9451
:20060000230284E991E10E94550A63E0CE010E94230284E991E10E94550A63E0CE010E9468
:20062000230286E990E00E94550A62E0CE010E94230216C06062CE010E94AC0284E991E147
:200640000E94550A6F856062CE010E94AC0286E990E00E94550A6F856062CE010E94AC020F
:200660006F856062CE010E94AC0284E0888BCE010E94C802CE010E94AF0282E0898B66E015
:20068000CE01DF91CF910C94AC026F927F928F92AF92CF92EF920F931F93CF93DF93CDB76B
:2006A000DEB73C01162F842F5D854E853F859889F301848325830683E782C086A1868286CC
:2006C000538744873587968761E00E94C30AF30185818F3F19F061E00E94C30A61E0F30136
:2006E00086810E94C30A112319F0F301178603C080E1F301878720E041E060E1C301DF91FA
:20070000CF911F910F91EF90CF90AF908F907F906F900C94D0028F92AF92CF92EF920F9387
:20072000DC0113961C921E921297E6E6F1E0ED93FC931F921F921F921F928C2CAE2CC02E3C
:20074000E22E042F2FEF462F61E00E9445030F900F900F900F900F91EF90CF90AF908F9040
:20076000089541E00E94830281E090E008958091ED0190E02091EE01821B91090895209192
:20078000EE018091ED01281750F4E22FF0E0E151FE4F808190E02F5F2093EE0108958FEFCC
:2007A0009FEF0895E091EE018091ED01E81730F4F0E0E151FE4F808190E008958FEF9FEF23
:2007C00008950895CF92DF92EF92FF920F931F93CF93DF937C01CB018A012091C90122233F
:2007E00089F0EB016B01C40ED51ECC15DD0569F06991D701ED91FC910190F081E02DC70193
:200800000995F3CF642F0E944105C801DF91CF911F910F91FF90EF90DF90CF900895CF9339
:20082000DF931F92CDB7DEB769832091C9012223D1F02091CA01203240F021E030E0FC0103
:200840003383228380E090E015C08091CB01E82FF0E0E453FE4F998190838F5F8093CB0156
:200860008093CA0105C061E0CE0101960E94410581E090E00F90DF91CF910895FC011382D7
:20088000128248EE53E060E070E044835583668377838EE691E09183808308951092EE011F
:2008A0001092ED011092CB011092CA010C948C04862F413208F040E26FEE71E00E94AA045D
:2008C0001092EE018093ED01089521E00C94580481E08093C9016093EC011092CB011092BE
:2008E000CA0108950F93062F21E04091CA016CEC71E08091EC010E94EE041092CB011092D1
:20090000CA011092C9010F91089561E00C9472048DEB91E00C943E0410927C0281E08093AD
:200920007A021092790261E082E10E94FC0A61E083E10E94FC0AE9EBF0E080818E7F8083D0
:2009400080818D7F808388E48093B80085E48093BC000895413208F03FC090917C029111D0
:20096000FCCF91E090937C0220937A022FEF20930F0210925402240F2093530290937B02B6
:2009800090917B02880F892B80937B0280917902813041F41092790280917B028093BB00F3
:2009A00085EC01C085EE8093BC0080917C028130E1F380915402841710F44091540225E578
:2009C00032E0FB01D9018A2F821B841718F48D918193F9CF842F089580E008950F934132D6
:2009E00008F046C090917C029111FCCF92E090937C0200937A029FEF90930F021092540211
:200A000040935302FB0165E572E0DB019A2F961B941718F491919D93F9CF10927B029091AF
:200A20007B02880F892B80937B0280917902813041F41092790280917B028093BB0085EC02
:200A400001C085EE8093BC00222321F080917C028230E1F380910F028F3F61F080910F02C5
:200A6000803251F080910F02803341F483E007C081E005C080E003C082E001C084E00F91DF
:200A80000895613298F420917C02243089F460933102FC0183E392E0DC012A2F281B2617E9
:200AA00018F421912D93F9CF80E0089581E0089582E0089585ED8093BC008091BC0084FD67
:200AC000FCCF10927C02089585EC8093BC0010927C0208951F920F920FB60F9211242F93E2
:200AE0003F934F935F936F937F938F939F93AF93BF93EF93FF938091B900887F803609F4BC
:200B00009CC068F5883209F45BC090F4803109F454C038F4882309F4F5C0883009F44DC0B9
:200B2000F5C0883109F44CC0803209F45DC0EEC0803409F468C048F4803309F455C088332F
:200B400009F0E4C080930F02A8C0803509F44FC0883509F45DC0883409F0D8C0D5C0883931
:200B600009F4C6C0A8F4883709F467C038F4883609F463C0803709F460C0C8C0883809F450
:200B8000B7C0803909F45FC0803809F0BFC05BC0803B09F485C038F4803A09F466C0883AF6
:200BA00009F47EC0B3C0803C09F4A6C0883C09F4A3C0883B09F489C0A9C080917B0210C074
:200BC0009091540280915302981770F5E091540281E08E0F80935402F0E0EB5AFD4F808194
:200BE0008093BB0085EC85C080930F028DC0E091540281E08E0F809354028091BB00F0E036
:200C0000EB5AFD4F808390915402809153026DC0E091540281E08E0F809354028091BB003C
:200C2000F0E0EB5AFD4F808380917A0281116CC081E08093790284EA60C083E080937C0294
:200C400010921002CFCF80911002803208F050C0E091100281E08E0F809310028091BB00F3
:200C6000F0E0EF5EFD4F8083BDCF80911002803230F4E0911002F0E0EF5EFD4F10820E9463
:200C80005A056091100270E0E0917502F091760281E192E00995109210020E94640536C09A
:200CA00084E080937C021092320210923102E0917702F0917802099580913102811105C076
:200CC00081E08093310210923302E091320281E08E0F80933202F0E0ED5CFD4F8081809333
:200CE000BB009091320280913102981708F47ACF85E88093BC000AC085EC8093BC001092C4
:200D00007C0204C010920F020E945A05FF91EF91BF91AF919F918F917F916F915F914F910D
:200D20003F912F910F900FBE0F901F901895DC01ED91FC910190F081E02D09940895CF9329
:200D4000C62FFC0160818DEB91E00E94680462E070E08DEB91E00E9497066C2F8DEB91E08B
:200D60000E940F0460E070E08DEB91E00E9497068DEB91E00E9485046AE070E080E090E088
:200D8000CF910C942D0A9B0160E04130510511F06B7F01C064602115310531F021303105F5
:200DA00029F46C7F616002C06C7F62600E949F060895CF93DF93EC0168838DEB91E00E94E0
:200DC0004E0442E050E062E070E0CE01DF91CF910C94C306FF920F931F93CF93DF938C018F
:200DE000F62EFC0160818DEB91E00E9468046F2D8DEB91E00E940F048DEB91E00E948504AC
:200E000069E070E080E090E00E942D0A42E0F80160818DEB91E00E9465048DEB91E00E9415
:200E2000BF03182F8DEB91E00E94BF03D12FF0E0CF2F9E01282BC901DF91CF911F910F91B2
:200E4000FF900895CF92DF92EF92FF920F931F93CF93DF9300D000D000D0CDB7DEB78C0144
:200E60006BEF0E94EA06E82EC92E6CEFC8010E94EA06F82ED92E6DEFC8010E94EA06E98274
:200E8000CA82FB82DC828D839E832E2D3C2D4F2D5D2DBC0180E090E026960FB6F894DEBFF9
:200EA0000FBECDBFDF91CF911F910F91FF90EF90DF90CF90089560E00E94EA06BC0180E051
:200EC00090E00E94CA0F20E030E040E857E30E94C51020E030E045E253E40E94C51020E059
:200EE00030E040E252E40E94C80E089561E00E94EA06BC0180E090E00E94CA0F20E030E08A
:200F000040E857E30E94C51020E030E048EC52E40E94C5100895FC01908191FB442740F92C
:200F200050E083E0440F551F8A95E1F7292F217030E0220F331F220F331F242B96959695BC
:200F40009770F0E19F9FC0011124822B08955F926F927F928F929F92AF92BF92CF92DF9282
:200F6000EF92FF920F931F93CF93DF938C014A01722E612CC62ED12C6714D8F5572C561808
:200F800080E2851510F460E2562EF80160818DEB91E00E946804E091BD01F091BE010190BA
:200FA000F081E02DB601660D711D8DEB91E009958DEB91E00E948504452DF80160818DEB9C
:200FC00091E00E946504C0E0D0E0A52CB12C8C2F860DCA15DB055CF47401E80EF11C8DEB4A
:200FE00091E00E94BF03F70180832196F0CF650CC3CFDF91CF911F910F91FF90EF90DF900B
:20100000CF90BF90AF909F908F907F906F905F900895CF92DF92EF92FF920F931F93CF9361
:20102000DF9300D000D0CDB7DEB78C0124E0AE014F5F5F4F66E00E94A7072B81822F90E086
:20104000A0E0B0E02227382F492F5A2F8C81282B60EA76E881E090E00E945F112981C22E4A
:20106000D12CE12CF12C5E2D4D2D3C2D2227EA812E2B0E946F11CA01B9010E94CA0F20E0AC
:2010800030E543EC57E40E94310F0E94851020E030E443E555E40E94310F2FE03FEC4BE5F7
:2010A0005BE30E94C90E9B01AC0160E070E080E89FE30E94310F23E333E948E853E40E94A9
:2010C000C80EF80121813281438154810E94C80E0F900F900F900F90DF91CF911F910F913F
:2010E000FF90EF90DF90CF900895CF93DF931F92CDB7DEB721E0AE014F5F5F4F0E94A7077D
:2011000089810F90DF91CF910895CF93DF93EC0160E00E947508998580FB90F9282F30E010
:20112000A901F3E055954795FA95E1F740FB91F9A4E035952795AA95E1F720FB92F9282F22
:20114000221F2227221F892F20FB83F9898786958170DF91CF910895CF93DF93EC0160E0EB
:201160000E947508998580FB90F9282F30E0A901B3E055954795BA95E1F740FB91F944E0B4
:20118000359527954A95E1F720FB92F9282F221F2227221F892F20FB83F989878170DF918A
:2011A000CF9108950F931F93CF93DF93CDB7DEB728970FB6F894DEBF0FBECDBF8C010E94BC
:2011C00085088823F1F028E0AE014F5F5F4F62E0C8010E94A707898190E0982F88272A81ED
:2011E000822BF801908787838B8190E0982F88272C81822B96838583818580FF02C08E8165
:2012000001C080E028960FB6F894DEBF0FBECDBFDF91CF911F910F910895EF92FF921F9327
:20122000CF93DF931F92CDB7DEB7162F7A01FC0160818DEB91E029830E946804612F8DEBC7
:2012400091E00E940F042981422F50E0B7018DEB91E00E94E2038DEB91E00F90DF91CF919D
:201260001F91FF90EF900C948504CF93DF9300D000D0CDB7DEB721E1298325EE2A8322E783
:201280002B832AE82C8324E0AE014F5F5F4F6FEF0E940D090F900F900F900F90DF91CF916E
:2012A0000895CF93DF931F92CDB7DEB7498321E0AE014F5F5F4F0E940D090F90DF91CF91F4
:2012C0000895CF93DF93EC016770660F660F8A85837E862B8A87CE010A960E948B07482F03
:2012E00061E0CE01DF91CF910C945109CF93DF93EC018A858D7F8A87CE010A960E948B0784
:20130000482F61E0CE01DF91CF910C945109CF93DF93EC0168838DEB91E00E944E04CE0124
:201320000E94350964E670E080E090E00E942D0A60E2CE010E947508813811F080E01DC063
:2013400020E040E050E064EFCE010E940D0964E670E080E090E00E942D0ACE010E94AC08FB
:201360008111ECCF898583FFE9CFCE010E94760961E0CE010E94610981E0DF91CF910895FE
:201380001F920F920FB60F9211242F933F938F939F93AF93BF9380917E0290917F02A09180
:2013A0008002B091810230917D0223E0230F2D3720F40196A11DB11D05C026E8230F02963A
:2013C000A11DB11D20937D0280937E0290937F02A0938002B0938102809182029091830262
:2013E000A0918402B09185020196A11DB11D8093820290938302A0938402B0938502BF9139
:20140000AF919F918F913F912F910F900FBE0F901F9018953FB7F894809182029091830288
:20142000A0918402B091850226B5A89B05C02F3F19F00196A11DB11D3FBF6627782F892FC6
:201440009A2F620F711D811D911D42E0660F771F881F991F4A95D1F70895CF92DF92EF9255
:20146000FF92CF93DF936B017C010E940A0AEB01C114D104E104F10489F00E94E40D0E944A
:201480000A0A6C1B7D0B683E734090F381E0C81AD108E108F108C851DC4FEACFDF91CF9182
:2014A000FF90EF90DF90CF900895019739F0880F991F880F991F02970197F1F70895789492
:2014C00084B5826084BD84B5816084BD85B5826085BD85B5816085BDEEE6F0E08081816014
:2014E0008083E1E8F0E01082808182608083808181608083E0E8F0E0808181608083E1EBAA
:20150000F0E0808184608083E0EBF0E0808181608083EAE7F0E08081846080838081826027
:2015200080838081816080838081806880831092C1000895833081F028F4813099F08230AB
:20154000A1F008958730A9F08830B9F08430D1F4809180008F7D03C0809180008F77809329
:201560008000089584B58F7702C084B58F7D84BD08958091B0008F7703C08091B0008F7DD3
:201580008093B0000895CF93DF9390E0FC01EA52FF4F2491FC01E651FF4F8491882349F1EF
:2015A00090E0880F991FFC01E85FFE4FA591B49182509F4FFC01C591D4919FB7611108C058
:2015C000F8948C91209582238C93888182230AC0623051F4F8948C91322F309583238C9306
:2015E0008881822B888304C0F8948C91822B8C939FBFDF91CF9108950F931F93CF93DF93FE
:201600001F92CDB7DEB7282F30E0F901EE53FF4F8491F901EA52FF4F1491F901E651FF4F53
:2016200004910023C9F0882321F069830E949A0A6981E02FF0E0EE0FFF1FE250FF4FA591B1
:20164000B4919FB7F8948C91611103C01095812301C0812B8C939FBF0F90DF91CF911F91BF
:201660000F9108951F920F920FB60F9211242F938F939F93EF93FF93E0919602F0919702F3
:201680008081E0919C02F0919D0282FD12C0908180919F028F5F8F732091A002821751F0E9
:2016A000E0919F02F0E0EA57FD4F958F80939F0201C08081FF91EF919F918F912F910F9062
:2016C0000FBE0F901F9018951F920F920FB60F9211242F933F934F935F936F937F938F93B7
:2016E0009F93AF93BF93EF93FF9386E892E00E94200EFF91EF91BF91AF919F918F917F9160
:201700006F915F914F913F912F910F900FBE0F901F90189586E892E00E94E50D21E0892BD9
:2017200009F420E0822F0895109289021092880288EE93E0A0E0B0E080938A0290938B02BD
:20174000A0938C02B0938D028CE891E0909387028093860285EC90E090939302809392028A
:2017600084EC90E0909395028093940280EC90E0909397028093960281EC90E09093990248
:201780008093980282EC90E090939B0280939A0286EC90E090939D0280939C0210929F02B7
:2017A0001092A0021092A1021092A202089508950E945F0A0E94D70B0E94A801C2E1DEE0E5
:2017C0000E94CC002097E1F30E94120EF9CFCF92DF92EF92FF920F931F93CF93DF936C010D
:2017E0007A01EB01E60EF71E00E010E0CE15DF0561F06991D601ED91FC910190F081E02DA6
:20180000C6010995080F191FF1CFC801DF91CF911F910F91FF90EF90DF90CF90089561157C
:20182000710581F0DB010D900020E9F7AD0141505109461B570BDC01ED91FC910280F3810E
:20184000E02D099480E090E008950C940F0CDC01ED91FC910190F081E02D09940F931F93CE
:20186000CF93DF93EC016DE00E94270C8C016AE0CE010E94270C800F911FDF91CF911F914B
:201880000F9108950F931F93CF93DF93EC010E940F0C8C01CE010E942E0C800F911FDF9152
:2018A000CF911F910F9108958F929F92AF92BF92CF92DF92EF92FF920F931F93CF93DF93EB
:2018C000CDB7DEB7A1970FB6F894DEBF0FBECDBF7C01C42EE52FCB01D22E19A221E02D1523
:2018E00010F02AE0D22E8E010F5D1F4F8D2C912CA12CB12C6C2D7E2FA50194010E946F11B2
:201900008C2DD29E80191124015011098A3014F4805D01C0895CF801808321153105410572
:20192000510521F0C22EE32FCA01E4CFB801C7010E940F0CA1960FB6F894DEBF0FBECDBF04
:20194000DF91CF911F910F91FF90EF90DF90CF90BF90AF909F908F900895CF92DF92EF92BF
:20196000FF920F931F93CF93DF93EC016A017B012115310579F4E881F9810190F081E02D0F
:20198000642FDF91CF911F910F91FF90EF90DF90CF9009942A303105E9F477FF1AC06DE20F
:2019A0000E94270C8C0144275527BA014C195D096E097F092AE0CE010E94540C800F911F3F
:2019C000DF91CF911F910F91FF90EF90DF90CF9008952AE0B701A601CE01DF91CF911F91B6
:2019E0000F91FF90EF90DF90CF900C94540C4F925F926F927F928F929F92AF92BF92CF9242
:201A0000DF92EF92FF920F931F93CF93DF93EC016A017B01B22E9A01AB01C701B6010E94FF
:201A20002811882319F06AE771E027C026013701E89477F82FEF3FEF4FE75FE7C301B201A7
:201A40000E94281181110DC02FEF3FEF4FE75FE7C301B2010E942D0F18161CF46EE771E04B
:201A60000CC02FEF3FEF4FE75FE4C701B6010E947C101816ACF462E871E0CE01DF91CF9120
:201A80001F910F91FF90EF90DF90CF90BF90AF909F908F907F906F905F904F900C940F0CA7
:201AA0002FEF3FEF4FE75FECC701B6010E942D0F87FDE1CF20E030E0A901C701B6010E94ED
:201AC0002D0F87FF0AC06DE2CE010E94270C8C01F7FAF094F7F8F09402C000E010E0A12CB3
:201AE00060E070E080E09FE3AB1441F020E030E040E251E40E94310FA394F6CF9B01AC01F6
:201B0000C701B6010E94C90E6B017C010E949E0F2B013C010E94CA0F9B01AC01C701B601E9
:201B20000E94C80E6B017C012AE0B301A201CE010E94540C080F191FBB2039F066E871E020
:201B4000CE010E940F0C080F191F7B2C772041F120E030E040E251E4C701B6010E94C510DD
:201B60006B017C010E94990F4B01AA2497FCA094BA2C2AE030E0B501A401CE010E94AD0CCC
:201B8000080F191FC501B4010E94CC0F9B01AC01C701B6010E94C80E6B017C017A94D6CF22
:201BA000C801DF91CF911F910F91FF90EF90DF90CF90BF90AF909F908F907F906F905F9087
:201BC0004F9008950C94F70C0895FC01818D228D90E0805C9F4F821B91098F7399270895BF
:201BE000FC01918D828D981731F0828DE80FF11D858D90E008958FEF9FEF0895FC01918DF4
:201C0000828D981761F0828DDF01A80FB11D5D968C91928D9F5F9F73928F90E008958FEF56
:201C20009FEF08958AE89BE0892B49F080E090E0892B29F00E948A0B81110C9400000895FC
:201C4000FC01848DDF01A80FB11DA35ABF4F2C91848D90E001968F739927848FA689B789ED
:201C60002C93A089B1898C9180648C93938D848D981306C00288F389E02D80818F7D80835D
:201C80000895CF93DF93EC01888D8823C9F0EA89FB89808185FD05C0A889B9898C9186FD1B
:201CA0000FC00FB607FCF5CF808185FFF2CFA889B9898C9185FFEDCFCE010E94200EE7CF5E
:201CC000DF91CF910895CF92DF92FF920F931F93CF93DF931F92CDB7DEB76C01DC015B9607
:201CE0009C915B975C968C915C97981307C05096ED91FC915197808185FD32C0F601038D7C
:201D000010E00F5F1F4F0F731127F02EF601848DF81211C00FB607FCF9CFD6015096ED9171
:201D2000FC915197808185FFF1CFC60169830E94200E6981EBCF838DE80FF11DE35AFF4F22
:201D40006083D6015B960C935B975296ED91FC91539780818062808381E058968C930DC049
:201D6000D6015696ED91FC91579760835096ED91FC91519780818064808381E090E00F9093
:201D8000DF91CF911F910F91FF90DF90CF9008955058BB27AA270ED075C166D130F06BD127
:201DA00020F031F49F3F11F41EF45BC10EF4E095E7FB51C1E92F77D180F3BA1762077307EB
:201DC0008407950718F071F49EF58FC10EF4E0950B2EBA2FA02D0B01B90190010C01CA01F7
:201DE000A0011124FF27591B99F0593F50F4503E68F11A16F040A22F232F342F4427585F1F
:201E0000F3CF469537952795A795F0405395C9F77EF41F16BA0B620B730B840BBAF0915018
:201E2000A1F0FF0FBB1F661F771F881FC2F70EC0BA0F621F731F841F48F487957795679501
:201E4000B795F7959E3F08F0B3CF9395880F08F09927EE0F979587950895D9D008F481E0F4
:201E600008950CD00FC107D140F0FED030F021F45F3F19F0F0C0511139C1F3C014D198F338
:201E80009923C9F35523B1F3951B550BBB27AA2762177307840738F09F5F5F4F220F331F16
:201EA000441FAA1FA9F333D00E2E3AF0E0E830D091505040E695001CCAF729D0FE2F27D043
:201EC000660F771F881FBB1F261737074807AB07B0E809F0BB0B802DBF01FF2793585F4F77
:201EE0002AF09E3F510568F0B6C000C15F3FECF3983EDCF3869577956795B795F7959F5FEB
:201F0000C9F7880F911D9695879597F90895E1E0660F771F881FBB1F621773078407BA07BC
:201F200020F0621B730B840BBA0BEE1F88F7E095089504D06894B111D9C00895BCD088F0D8
:201F40009F5790F0B92F9927B751A0F0D1F0660F771F881F991F1AF0BA95C9F712C0B130D4
:201F600081F0C3D0B1E00895C0C0672F782F8827B85F39F0B93FCCF3869577956795B39561
:201F8000D9F73EF490958095709561957F4F8F4F9F4F0895E89409C097FB3EF49095809590
:201FA000709561957F4F8F4F9F4F9923A9F0F92F96E9BB279395F695879577956795B7958B
:201FC000F111F8CFFAF4BB0F11F460FF1BC06F5F7F4F8F4F9F4F16C0882311F096E911C007
:201FE000772321F09EE8872F762F05C0662371F096E8862F70E060E02AF09A95660F771F8F
:20200000881FDAF7880F9695879597F90895990F0008550FAA0BE0E8FEEF16161706E80787
:20202000F907C0F012161306E407F50798F0621B730B840B950B39F40A2661F0232B242BCB
:20204000252B21F408950A2609F4A140A6958FEF811D811D089597F99F6780E870E060E050
:2020600008959FEF80EC089500240A941616170618060906089500240A941216130614063A
:2020800005060895092E0394000C11F4882352F0BB0F40F4BF2B11F460FF04C06F5F7F4F20
:2020A0008F4F9F4F089557FD9058440F551F59F05F3F71F04795880F97FB991F61F09F3F80
:2020C00079F087950895121613061406551FF2CF4695F1DF08C0161617061806991FF1CFFC
:2020E00086957105610508940895E894BB2766277727CB0197F908958ADF08F48FEF0895AE
:202100000EF0AAC0AECF6894A6CFD5DFC8F39923D1F3C6F3DF93CF931F930F93FF92C92F10
:20212000DD2788232AF02197660F771F881FDAF720E030E040E85FEB9FE3883920F0803E08
:2021400030F021968F7725DEE8E6F0E003C021DEE5E9F0E08FD08B01BE01EC01FB2E6F571B
:2021600071097595771F880B990B16DF28E132E741E35FE316D0AF2D9801AE01FF900F9158
:202180001F91CF91DF9116DE7DCF0BD07BCF6CDF28F071DF18F0952309F05DCF62CF11245C
:2021A000A5CF81DFA0F3959FD1F3950F50E0551F629FF001729FBB27F00DB11D639FAA27F5
:2021C000F00DB11DAA1F649F6627B00DA11D661F829F2227B00DA11D621F739FB00DA11DE8
:2021E000621F839FA00D611D221F749F3327A00D611D231F849F600D211D822F762F6A2F39
:2022000011249F5750408AF0E1F088234AF0EE0FFF1FBB1F661F771F881F91505040A9F70B
:202220009E3F510570F017CF61CF5F3FECF3983EDCF3869577956795B795F795E7959F5F5E
:20224000C1F7FE2B880F911D9695879597F90895DEDE880B990B08959F3F31F0915020F460
:20226000879577956795B795880F911D9695879597F90895DF93CF931F930F93FF92EF92FB
:20228000DF927B018C01689405C0DA2EEF0189DFFE01E894A5912591359145915591AEF319
:2022A000EF0188DDFE019701A801DA9479F7DF90EF90FF900F911F91CF91DF910895DB0195
:2022C0008F939F930E949111BF91AF91A29F800D911DA39F900DB29F900D11240895A1E238
:2022E0001A2EAA1BBB1BFD010DC0AA1FBB1FEE1FFF1FA217B307E407F50720F0A21BB30B7D
:20230000E40BF50B661F771F881F991F1A9469F760957095809590959B01AC01BD01CF013B
:2023200008950E94A211A59F900DB49F900DA49F800D911D11240895EE0FFF1F0590F49155
:20234000E02D0994A29FB001B39FC001A39F700D811D1124911DB29F700D811D1124911D3F
:202360000895AEE0B0E0E7EBF1E10C9459140D891E8986E08C831A8309838FEF9FE79E83F1
:202380008D83AE01475E5F4F6F89788DCE0101960E94D311EF81F885E00FF11F10822E9600
:2023A000E4E00C947514ACE0B0E0E9EDF1E10C944B147C016B018A01FC01178216828381C7
:2023C00081FFBDC1CE0101964C01F7019381F60193FD859193FF81916F01882309F4ABC17B
:2023E000853239F493FD859193FF81916F01853229F4B70190E00E94BB13E7CF512C312C43
:2024000020E02032A0F48B3269F030F4803259F0833269F420612CC08D3239F0803339F45A
:20242000216026C02260246023C0286021C027FD27C030ED380F3A3078F426FF06C0FAE0D9
:202440005F9E300D1124532E13C08AE0389E300D1124332E20620CC08E3221F426FD6BC134
:20246000206406C08C3611F4206802C0883641F4F60193FD859193FF81916F018111C1CF3B
:20248000982F9F7D9554933028F40C5F1F4FFFE3F9830DC0833631F0833771F0833509F0E7
:2024A0005BC022C0F801808189830E5F1F4F44244394512C540115C03801F2E06F0E711C43
:2024C000F801A080B18026FF03C0652D70E002C06FEF7FEFC5012C870E94B0132C018301CB
:2024E0002C852F77222E17C03801F2E06F0E711CF801A080B18026FF03C0652D70E002C073
:202500006FEF7FEFC5012C870E94A5132C012C852068222E830123FC1BC0832D90E048166A
:202520005906B0F4B70180E290E00E94BB133A94F4CFF50127FC859127FE81915F01B7018F
:2025400090E00E94BB1331103A94F1E04F1A51084114510471F7E5C0843611F0893639F59A
:20256000F80127FF07C060817181828193810C5F1F4F08C060817181882777FD8095982F18
:202580000E5F1F4F2F76B22E97FF09C090958095709561957F4F8F4F9F4F2068B22E2AE03B
:2025A00030E0A4010E94ED13A82EA81844C0853729F42F7EB22E2AE030E025C0F22FF97F2C
:2025C000BF2E8F36C1F018F4883579F0B4C0803719F0883721F0AFC02F2F2061B22EB4FE82
:2025E0000DC08B2D8460B82E09C024FF0AC09F2F9660B92E06C028E030E005C020E130E077
:2026000002C020E132E0F801B7FE07C060817181828193810C5F1F4F06C06081718180E0B4
:2026200090E00E5F1F4FA4010E94ED13A82EA818FB2DFF77BF2EB6FE0BC02B2D2E7FA514AA
:2026400050F4B4FE0AC0B2FC08C02B2D2E7E05C07A2C2B2D03C07A2C01C0752C24FF0DC0C2
:20266000FE01EA0DF11D8081803311F4297E09C022FF06C07394739404C0822F867809F0CC
:20268000739423FD13C020FF06C05A2C731418F4530C5718732C731468F4B70180E290E068
:2026A0002C870E94BB1373942C85F5CF731410F4371801C0312C24FF12C0B70180E390E003
:2026C0002C870E94BB132C8522FF17C021FF03C088E590E002C088E790E0B7010CC0822F98
:2026E000867859F021FD02C080E201C08BE227FD8DE2B70190E00E94BB13A51438F4B7015B
:2027000080E390E00E94BB135A94F7CFAA94F401EA0DF11D8081B70190E00E94BB13A11040
:20272000F5CF332009F451CEB70180E290E00E94BB133A94F6CFF7018681978102C08FEF82
:202740009FEF2C96E2E10C946714FC010590615070400110D8F7809590958E0F9F1F089546
:20276000FC016150704001900110D8F7809590958E0F9F1F08950F931F93CF93DF93182FE9
:20278000092FEB018B8181FD03C08FEF9FEF20C082FF10C04E815F812C813D8142175307BE
:2027A0007CF4E881F9819F012F5F3F4F39832883108306C0E885F985812F0995892B29F73D
:2027C0002E813F812F5F3F4F3F832E83812F902FDF91CF911F910F910895FA01AA272830AB
:2027E00051F1203181F1E8946F936E7F6E5F7F4F8F4F9F4FAF4FB1E03ED0B4E03CD0670F4F
:20280000781F891F9A1FA11D680F791F8A1F911DA11D6A0F711D811D911DA11D20D009F4E0
:2028200068943F912AE0269F11243019305D3193DEF6CF010895462F4770405D4193B3E0BD
:202840000FD0C9F7F6CF462F4F70405D4A3318F0495D31FD4052419302D0A9F7EACFB4E0C5
:20286000A6959795879577956795BA95C9F700976105710508959B01AC010A2E06945795A7
:20288000479537952795BA95C9F7620F731F841F951FA01D08952F923F924F925F926F92AC
:2028A0007F928F929F92AF92BF92CF92DF92EF92FF920F931F93CF93DF93CDB7DEB7CA1B19
:2028C000DB0B0FB6F894DEBF0FBECDBF09942A88398848885F846E847D848C849B84AA84B8
:2028E000B984C884DF80EE80FD800C811B81AA81B981CE0FD11D0FB6F894DEBF0FBECDBF65
:20290000ED010895F894FFCF000023038000432052483D0025004320434F323D0070706D1C
:20292000004465766963652053657269616C204E756D6265723D00253032582D2530345814
:202940002D2530345800696E69742000686463313038302073656E736F72004343533831A1
:20296000312073656E736F72200000000000B103E70B000000000F04E203B703BF03D2035D
:20298000E1036E616E00696E66006F7666002E0000000000630EE70BE50DFE0DF00D410EB4
:2029A000FFFFFFFFFFFFFFFFFFFFFFFFFFFFFFFFFFFFFFFFFFFFFFFFFFFFFFFFFFFFFFFF37
:2029C000FFFFFFFFFFFFFFFFFFFFFFFFFFFFFFFFFFFFFFFFFFFFFFFFFFFFFFFFFFFFFFFF17
:2029E000FFFFFFFFFFFFFFFFFFFFFFFFFFFFFFFFFFFFFFFFFFFFFFFFFFFFFFFFFFFFFFFFF7
:202A000020C082FF10C04E815F812C813D81421753077CF4E881F9819F012F5F3F4F3983ED
:202A20002883108306C0E885F985812F0995892B29F72E813F812F5F3F4F3F832E83812FD7
:202A4000902FDF91CF911F910F910895FA01AA27283051F1203181F1E8946F936E7F6E5F99
:202A60007F4F8F4F9F4FAF4FB1E03ED0B4E03CD0670F781F891F9A1FA11D680F791F8A1F9B
:202A8000911DA11D6A0F711D811D911DA11D20D009F468943F912AE0269F11243019305D26
:202AA0003193DEF6CF010895462F4770405D4193B3E00FD0C9F7F6CF462F4F70405D4A332F
:202AC00018F0495D31FD4052419302D0A9F7EACFB4E0A6959795879577956795BA95C9F75B
:202AE00000976105710508959B01AC010A2E06945795479537952795BA95C9F7620F731F49
:202B0000841F951FA01D08952F923F924F925F926F927F928F929F92AF92BF92CF92DF92D8
:202B2000EF92FF920F931F93CF93DF93CDB7DEB7CA1BDB0B0FB6F894DEBF0FBECDBF099493
:202B40002A88398848885F846E847D848C849B84AA84B984C884DF80EE80FD800C811B8103
:202B6000AA81B981CE0FD11D0FB6F894DEBF0FBECDBFED010895F894FFCF0000C1038000B5
:202B8000432052483D002500543D00432C2052483D004320434F323D0070706D00434F326A
:202BA0003A200070706D2C2054564F433A200070706220202054656D703A004552524F5290
:202BC00021004465766963652053657269616C204E756D6265723D00253032582D253034A9
:202BE000582D2530345800696E697420004844433130383020616E642043435338313120FD
:202C00007465737400686463313038302073656E736F72004D616E75666163747572657255
:202C20002049443D3078004465766963652049443D3078004343533831312073656E736F65
:202C40007220004661696C656420746F207374617274204343533831312073656E736F72FF
:202C60002120506C6561736520636865636B20796F757220776972696E672E0000000000CE
:202C80004D04CE0D00000000AB047E0453045B046E047D0400000000520CCE0DD40BED0B1E
:202CA000DF0B300C6E616E00696E66006F766600FFFFFFFFFFFFFFFFFFFFFFFFFFFFFFFF39
:202CC000FFFFFFFFFFFFFFFFFFFFFFFFFFFFFFFFFFFFFFFFFFFFFFFFFFFFFFFFFFFFFFFF14
:202CE000FFFFFFFFFFFFFFFFFFFFFFFFFFFFFFFFFFFFFFFFFFFFFFFFFFFFFFFFFFFFFFFFF4
:202D00000E000000001B07EE06C306CB06DE06ED06000000008D0C090E0F0C280C1A0C6B8E
:202D20000C6E616E00696E66006F76660000FFFFFFFFFFFFFFFFFFFFFFFFFFFFFFFFFFFFD4
:202D4000FFFFFFFFFFFFFFFFFFFFFFFFFFFFFFFFFFFFFFFFFFFFFFFFFFFFFFFFFFFFFFFF93
:202D6000FFFFFFFFFFFFFFFFFFFFFFFFFFFFFFFFFFFFFFFFFFFFFFFFFFFFFFFFFFFFFFFF73
:202D8000FFFFFFFFFFFFFFFFFFFFFFFFFFFFFFFFFFFFFFFFFFFFFFFFFFFFFFFFFFFFFFFF53
:202DA000FFFFFFFFFFFFFFFFFFFFFFFFFFFFFFFFFFFFFFFFFFFFFFFFFFFFFFFFFFFFFFFF33
:207800000C94343C0C94513C0C94513C0C94513C0C94513C0C94513C0C94513C0C94513C1D
:207820000C94513C0C94513C0C94513C0C94513C0C94513C0C94513C0C94513C0C94513CE0
:207840000C94513C0C94513C0C94513C0C94513C0C94513C0C94513C0C94513C0C94513CC0
:207860000C94513C0C94513C11241FBECFEFD8E0DEBFCDBF11E0A0E0B1E0ECE9FFE702C07E
:2078800005900D92A230B107D9F712E0A2E0B1E001C01D92AD30B107E1F70E942D3D0C94CC
:2078A000CC3F0C94003C982F9595959595959595905D8F708A307CF0282F295A8091C000B5
:2078C00085FFFCCF9093C6008091C00085FFFCCF2093C6000895282F205DF0CF982F8091CF
:2078E000C00085FFFCCF9093C6000895EF92FF920F931F93EE24FF2487018091C00087FD7B
:2079000017C00894E11CF11C011D111D81E4E81682E4F8068FE0080780E0180770F3E09106
:207920000401F091050109958091C00087FFE9CF8091C6001F910F91FF90EF9008950E949A
:20794000763C982F8091C00085FFFCCF9093C60091362CF490330CF09053892F08959755DB
:20796000892F08951F930E949F3C182F0E949F3C1295107F810F1F9108951F93182F882308
:2079800021F00E94763C1150E1F71F9108951F93182F0E94763C803249F0809103018F5FC1
:2079A000809303018530C1F01F9108958091C00085FFFCCF84E18093C6008091C00085FF4A
:2079C000FCCF1093C6008091C00085FFFCCF80E18093C6001F910895E0910401F0910501CF
:2079E00009951F9108950E94763C803241F0809103018F5F80930301853081F00895809177
:207A0000C00085FFFCCF84E18093C6008091C00085FFFCCF80E18093C6000895E0910401AC
:207A2000F09105010995089540E951E08823A1F02D9A28EE33E0FA013197F1F72150304072
:207A4000D1F72D9828EE33E0FA013197F1F721503040D1F7815061F708953F924F925F92B3
:207A60006F927F928F929F92AF92BF92CF92DF92EF92FF920F931F93CF93DF93000080E1A3
:207A80008093C4001092C50088E18093C10086E08093C2005098589A259A81E00E94143D43
:207AA00024E1F22E9EE1E92E85E9D82E0FE0C02E10E1B12EAA24A394B1E49B2EA6E58A2E44
:207AC000F2E57F2EE0E26E2E79E4572E63E5462E50E5352E0E94763C8033B1F18133B9F187
:207AE000803409F46FC0813409F476C0823409F485C0853409F488C0803531F1823521F128
:207B0000813511F1853509F485C0863509F48DC0843609F496C0843709F403C1853709F46A
:207B200072C1863709F466C0809103018F5F80930301853079F6E0910401F0910501099559
:207B40000E94763C803351F60E94F33CC3CF0E94763C803249F78091C00085FFFCCFF0928C
:207B6000C6008091C00085FFFCCF9092C6008091C00085FFFCCF8092C6008091C00085FFEA
:207B8000FCCF7092C6008091C00085FFFCCF6092C6008091C00085FFFCCF5092C6008091A1
:207BA000C00085FFFCCF4092C6008091C00085FFFCCF3092C6008091C00085FFFCCFB09214
:207BC000C60088CF0E94763C863808F4BDCF0E94763C0E94F33C7ECF0E94763C803809F473
:207BE0009CC0813809F40BC1823809F43CC1883909F48FC080E00E94C73C6CCF84E10E949F
:207C0000BD3C0E94F33C66CF85E00E94BD3C0E94F33C60CF0E94763C809306010E94763CA3
:207C2000809307010E94F33C55CF0E94763C803309F41DC183E00E94BD3C80E00E94C73C4F
:207C400049CF0E94763C809309020E94763C8093080280910C028E7F80930C020E94763C88
:207C6000853409F415C18091080290910902892B89F000E010E00E94763CF801E85FFE4F53
:207C800080830F5F1F4F80910802909109020817190788F30E94763C803209F045CF8091E0
:207CA0000C0280FF01C16091060170910701660F771F7093070160930601A0910802B091E8
:207CC00009021097C9F0E8E0F1E09B01AD014E0F5F1FF999FECF32BD21BD819180BDFA9A6C
:207CE000F99A2F5F3F4FE417F50799F76A0F7B1F70930701609306018091C00085FFFCCF16
:207D0000F092C6008091C00085FFFCCFB092C600E1CE83E00E94C73CDDCE82E00E94C73C8A
:207D2000D9CE0E94763C809309020E94763C809308028091060190910701880F991F909306
:207D40000701809306010E94763C853409F4A6C080910C028E7F80930C020E94763C80323E
:207D600009F0B8CE8091C00085FFFCCFF092C600609108027091090261157105B9F140E05F
:207D800050E080910C02A82FA170B82FB27011C0BB2309F45CC0E0910601F0910701319613
:207DA000F0930701E09306014F5F5F4F46175707E8F4AA2369F3F999FECF209106013091CA
:207DC000070132BD21BDF89A90B58091C00085FFFCCF9093C6002F5F3F4F30930701209354
:207DE00006014F5F5F4F4617570718F38091C00085FDE5CE8091C00085FFF8CFE0CE81E029
:207E00000E94C73C67CE0E94763C803209F08CCE8091C00085FFFCCFF092C6008091C000F6
:207E200085FFFCCFE092C6008091C00085FFFCCFD092C6008091C00085FFFCCFC092C6003B
:207E40008091C00085FFFCCFB092C60043CEE0910601F091070194918091C00085FFFCCFA3
:207E60009093C6009CCF80E10E94C73C33CE0E94763C0E94763C182F0E94763C112309F433
:207E800083C0113009F484C08FE00E94C73C22CE80910C02816080930C02E5CE80910C0226
:207EA000816080930C0259CF809107018823880F880B8A2180930B0280910601909107019E
:207EC000880F991F90930701809306018091080280FF09C0809108029091090201969093AA
:207EE000090280930802F894F999FECF1127E0910601F0910701C8E0D1E0809108029091A1
:207F00000902103091F40091570001700130D9F303E000935700E895009157000170013067
:207F2000D9F301E100935700E895099019900091570001700130D9F301E000935700E8954C
:207F40001395103498F011270091570001700130D9F305E000935700E8950091570001707A
:207F60000130D9F301E100935700E8953296029709F0C7CF103011F00296E5CF11248091F8
:1E7F8000C00085FFB9CEBCCE8EE10E94C73CA2CD85E90E94C73C9ECDF894FFCF8000B3
:00000001FF
